:100000000C9435010C9466010C9466010C94660105
:100010000C9466010C9466010C9466010C946601C4
:100020000C9466010C9466010C9466010C946601B4
:100030000C9466010C9466010C9466010C946601A4
:100040000C9466010C9466010C9466010C94660194
:100050000C9466010C9466010C9466010C94DC030C
:100060000C9466010C9466010C9466010C94660174
:100070000C9466010C9466010C9466010C94660164
:100080000C9466010C9466010C9466010C94660154
:100090000C9450040C9426040C9466010C94660194
:1000A0000C9466010C9466010C9466010C94660134
:1000B0000C9466010C9466010C9466010C94660124
:1000C0000C9466010C9466010C9466010C94660114
:1000D0000C9466010C9466010C9466010C94660104
:1000E0000C9466010C9486010C94C5020C94C70113
:1000F0000C94BD010C94AF010C94AB010C946C03F7
:100100000C94B6020C94B9010C9498010C94CB0198
:100110000C948C010C9490010C949B010C94A501FF
:100120000C94A1010C94BD050C941F030C9489023E
:100130000C94C1010C94E7020C94C6010C94B30119
:100140000C94D9020C949401000020002300260096
:1001500029002C002F0032000001000003010601DD
:10016000090100002100240027002A002D00300092
:10017000330001010000040107010A010000220010
:10018000250028002B002E00310034000201000061
:10019000050108010B010505050507050808080804
:1001A000020202020A0A080804040404010101010F
:1001B000010101010303030303030303040707070A
:1001C0000C0C0C0C0C0C0C0C0202020206060606AF
:1001D000060606060B0B0B0B0B0B0B0B010210207C
:1001E000200808102040102040800201020108046D
:1001F0000201010204081020408080402010080401
:100200000201800402018040201008040201080459
:10021000020101020408102040800102040810209D
:10022000408000000A0B02090C0D0E0807030401B0
:1002300000000000000000000000000000000000BE
:10024000000000000000000000000000000012118B
:10025000100000000000000000000000000000008E
:100260000000000000000000BD0511241FBECFEFFC
:10027000D1E2DEBFCDBF00E00CBF12E0A0E0B2E0F3
:10028000E8EEFBE000E00BBF02C007900D92A8353E
:10029000B107D9F722E0A8E5B2E001C01D92AF3F57
:1002A000B207E1F711E0C5E3D1E000E006C0219715
:1002B0000109802FFE010E94EA05C433D10780E0C6
:1002C0000807A9F70E9486040C94F2050C9400001C
:1002D0008150823108F05AC0E82FF0E08827EC58AE
:1002E000FE4F8F4F0C94EA059401980186018C0112
:1002F0009001C6019B01A101A501AB01AF01B301B2
:10030000B901BD01C601C101C701CB0180918000C7
:100310008F77809380000895809180008F7DF9CF42
:1003200080918000877FF5CF84B58F7784BD089555
:1003300084B58F7DFBCF8091B0008F778093B00024
:1003400008958091B0008F7DF9CF809190008F77D4
:10035000809390000895809190008F7DF9CF8091D7
:100360009000877FF5CF8091A0008F778093A000C9
:1003700008958091A0008F7DF9CF8091A000877FA4
:10038000F5CF809120018F7780932001089580918F
:1003900020018F7DF9CF80912001877FF5CF1F93BA
:1003A000CF93DF93282F30E0F901EE5DFD4F84916C
:1003B000F901E452FE4FD491F901EA56FE4FC4917F
:1003C000CC23A9F0162F81110E946801EC2FF0E0D8
:1003D000EE0FFF1FE458FE4FA591B4918FB7F8942C
:1003E000EC91111108C0D095DE23DC938FBFDF9113
:1003F000CF911F910895DE2BF8CFCF93DF9390E03C
:10040000FC01E452FE4F24918A569E4FFC018491D8
:100410008823D1F090E0880F991FFC01EE59FE4F20
:10042000A591B491FC01E458FE4FC591D49161119E
:100430000EC09FB7F8948C91E22FE0958E238C9399
:100440002881E223E8839FBFDF91CF9108958FB782
:10045000F894EC91E22BEC938FBFF6CF3FB7F89472
:1004600080915E0290915F02A0916002B091610262
:1004700026B5A89B05C02F3F19F00196A11DB11DFF
:100480003FBFBA2FA92F982F8827BC01CD01620F3B
:10049000711D811D911D42E0660F771F881F991FF6
:1004A0004A95D1F708958F929F92AF92BF92CF92C3
:1004B000DF92EF92FF920E942E024B015C0188EEC8
:1004C000C82E83E0D82EE12CF12C0E942E02681950
:1004D00079098A099B09683E734081059105A8F353
:1004E00021E0C21AD108E108F10888EE880E83E005
:1004F000981EA11CB11CC114D104E104F10429F718
:10050000FF90EF90DF90CF90BF90AF909F908F9033
:100510000895AF92BF92CF92DF92EF92FF920F9326
:100520001F93CF93DF936C017B018B01040F151F89
:10053000EB015E01AE18BF08C017D10759F06991F1
:10054000D601ED91FC910190F081E02DC601199545
:10055000892B79F7C501DF91CF911F910F91FF9002
:10056000EF90DF90CF90BF90AF900895FC01538D36
:10057000448D252F30E0842F90E0821B930B54177D
:1005800010F0CF96089501970895FC01918D828D0A
:10059000981761F0A28DAE0FBF2FB11D5D968C91A3
:1005A000928D9F5F9F73928F90E008958FEF9FEFE2
:1005B0000895FC01918D828D981731F0828DE80F9E
:1005C000F11D858D90E008958FEF9FEF0895FC0158
:1005D000918D228D892F90E0805C9F4F821B910925
:1005E0008F739927089582E692E00E94E70221E046
:1005F000892B09F420E0822F0895FC01A48DA80F17
:10060000B92FB11DA35ABF4F2C91848D90E0019654
:100610008F739927848FA689B7892C93A089B18974
:100620008C91837080648C93938D848D981306C015
:100630000288F389E02D80818F7D80830895EF9279
:10064000FF920F931F93CF93DF93EC0181E0888F8C
:100650009B8D8C8D98131AC0E889F989808185FF5C
:1006600015C09FB7F894EE89FF896083E889F989FE
:1006700080818370806480839FBF81E090E0DF9100
:10068000CF911F910F91FF90EF900895F62E0B8D53
:1006900010E00F5F1F4F0F731127E02E8C8D8E110E
:1006A0000CC00FB607FCFACFE889F989808185FF75
:1006B000F5CFCE010E94FD02F1CFEB8DEC0FFD2FA7
:1006C000F11DE35AFF4FF0829FB7F8940B8FEA8930
:1006D000FB8980818062CFCFCF93DF93EC01888D3F
:1006E0008823B9F0AA89BB89E889F9898C9185FDAD
:1006F00003C0808186FD0DC00FB607FCF7CF8C913B
:1007000085FFF2CF808185FFEDCFCE010E94FD02F3
:10071000E9CFDF91CF91089580E090E0892B49F0F7
:1007200080E090E0892B29F00E94000081110E9456
:10073000000080E090E0892B29F00E94F3028111F3
:100740000E94000080E090E0892B49F080E090E07A
:10075000892B29F00E94000081110E94000080E096
:1007600090E0892B49F080E090E0892B29F00E94ED
:10077000000081110C940000089542E050E062E115
:1007800072E082E692E00C948902CF93DF93FC0141
:1007900001900020E9F73197AF01481B590BBC01CC
:1007A00082E692E00E948902EC010E94BD038C0F58
:1007B0009D1FDF91CF9108951F920F920FB60F9258
:1007C00011242F933F938F939F93AF93BF93809167
:1007D0005A0290915B02A0915C02B0915D0230914F
:1007E000590223E0230F2D3758F50196A11DB11DA5
:1007F0002093590280935A0290935B02A0935C026B
:10080000B0935D0280915E0290915F02A0916002C0
:10081000B09161020196A11DB11D80935E0290937B
:100820005F02A0936002B0936102BF91AF919F916C
:100830008F913F912F910F900FBE0F901F901895A1
:1008400026E8230F0296A11DB11DD2CF1F920F9251
:100850000FB60F9211240BB60F922F933F934F9325
:100860005F936F937F938F939F93AF93BF93EF9318
:10087000FF9382E692E00E94FD02FF91EF91BF910B
:10088000AF919F918F917F916F915F914F913F9128
:100890002F910F900BBE0F900FBE0F901F901895C9
:1008A0001F920F920FB60F9211240BB60F922F9337
:1008B0008F939F93EF93FF93E0917202F0917302F5
:1008C0008081E0917802F091790282FD1DC09081D3
:1008D00080917B028F5F8F7320917C02821741F0A1
:1008E000E0917B02F0E0EE59FD4F958F80937B0203
:1008F000FF91EF919F918F912F910F900BBE0F90D1
:100900000FBE0F901F9018958081F2CF789484B518
:10091000826084BD84B5816084BD85B5826085BDFB
:1009200085B5816085BD80916E00816080936E0089
:10093000109281008091810082608093810080917B
:10094000810081608093810080918000816080932C
:1009500080008091B10084608093B1008091B000EC
:1009600081608093B00080919100826080939100BB
:1009700080919100816080939100809190008160CE
:10098000809390008091A10082608093A10080916B
:10099000A10081608093A1008091A000816080937C
:1009A000A00080912101826080932101809121012A
:1009B00081608093210180912001816080932001DA
:1009C00080917A00846080937A0080917A008260BE
:1009D00080937A0080917A00816080937A00809180
:1009E0007A00806880937A001092C100E0917202D0
:1009F000F091730282E08083E0916E02F0916F02C9
:100A00001082E0917002F09171028FEC808310925D
:100A10007A02E0917602F091770286E08083E0919D
:100A20007402F0917502808180618083E09174028C
:100A3000F0917502808188608083E0917402F0916A
:100A40007502808180688083E0917402F091750264
:100A500080818F7D808385E192E00E94C50361E003
:100A60008DE00E94FD0161E08CE00E94FD0160E0EC
:100A70008BE00E94FD01CDE2D2E007EE11E091EAA9
:100A8000E92E91E0F92EFE018491F801C490F7015E
:100A9000D490DD20C1F081110E946801ED2DF0E0BD
:100AA000EE0FFF1FE85BFE4FA591B4918C91C82219
:100AB00051F080E292E00E94C50360E08BE00E946A
:100AC000CF010E94530282E692E00E94E7021816CC
:100AD00019060CF04FC082E692E00E94C502809396
:100AE0005802682F82E692E00E941F030E94BD0315
:100AF00080915802813361F461E08DE00E94CF0162
:100B000060E08CE00E94CF0181E392E00E94C50387
:100B100080915802823361F460E08DE00E94CF0141
:100B200061E08CE00E94CF0180E492E00E94C50366
:100B300080915802833361F461E08DE00E94CF011F
:100B400061E08CE00E94CF0189E392E00E94C5033E
:100B5000809158028F3661F460E08DE00E94CF01F1
:100B600060E08CE00E94CF0188E492E00E94C5031F
:100B70000E9453020E948C0386CFE2E6F2E01382C9
:100B8000128288EE93E0A0E0B0E084839583A68390
:100B9000B78384E092E0918380838DEC90E0958729
:100BA00084878CEC90E09787868788EC90E0918B27
:100BB000808B89EC90E0938B828B8AEC90E0958B14
:100BC000848B8EEC90E0978B868B118E128E138E19
:100BD000148E0895EE0FFF1F881F8BBF0790F691AC
:080BE000E02D1994F894FFCFF9
:100BE800000000001F038902B6026C03E702C50279
:100BF800D9020D0A004269656E76656E69646F00F8
:100C0800426F746F6E2070726573696F6E61646F86
:100C1800004C454431206F6E004C4544312079200A
:100C28004C454432206F6E004C4544312079204CAD
:080C3800454432206F6666009E
:00000001FF
