:100000000C945D000C9485000C9485000C94850084
:100010000C9485000C9485000C9485000C9485004C
:100020000C9485000C9485000C9485000C9485003C
:100030000C9485000C9485000C9485000C9485002C
:100040000C9439020C9485000C94A9020C94830240
:100050000C9485000C9485000C9485000C9485000C
:100060000C9485000C9485000000000024002700FB
:100070002A0000000000250028002B0004040404CE
:100080000404040402020202020203030303030342
:10009000010204081020408001020408102001021F
:1000A00004081020000000080002010000030407FB
:1000B0000000000000000000F00311241FBECFEF7D
:1000C000D8E0DEBFCDBF21E0AEE4B1E001C01D92BB
:1000D000A63FB207E1F711E0A0E0B1E0EEE7F8E0FB
:1000E00002C005900D92AE34B107D9F710E0CDE50E
:1000F000D0E004C02197FE010E943704CC35D1071F
:10010000C9F70E94DB020C943D040C940000E1EB63
:10011000F0E02491EDE9F0E09491E9E8F0E0E49179
:10012000EE23C9F0222339F0233001F1A8F4213065
:1001300019F1223029F1F0E0EE0FFF1FEE58FF4FCA
:10014000A591B4912FB7F894EC91811126C09095A8
:100150009E239C932FBF08952730A9F02830C9F023
:10016000243049F7209180002F7D03C0209180002A
:100170002F7720938000DFCF24B52F7724BDDBCFEE
:1001800024B52F7DFBCF2091B0002F772093B000B6
:10019000D2CF2091B0002F7DF9CF9E2BDACFAF9236
:1001A000BF92CF92DF92EF92FF920F931F93CF9364
:1001B000DF936C017B018B01040F151FEB015E01C6
:1001C000AE18BF08C017D10759F06991D601ED915B
:1001D000FC910190F081E02DC6010995892B79F7FA
:1001E000C501DF91CF911F910F91FF90EF90DF90AC
:1001F000CF90BF90AF900895FC01538D448D252F73
:1002000030E0842F90E0821B930B541710F0CF96B0
:10021000089501970895FC01918D828D981761F0E2
:10022000A28DAE0FBF2FB11D5D968C91928D9F5FF9
:100230009F73928F90E008958FEF9FEF0895FC01D8
:10024000918D828D981731F0828DE80FF11D858D8B
:1002500090E008958FEF9FEF08952FB7F894809165
:10026000550190915601A0915701B09158012FBFAF
:100270008093610190936201A0936301B093640144
:1002800089E591E00E941F0197FF26C02FB7F894DF
:100290008091550190915601A0915701B09158015C
:1002A0002FBF409161015091620160916301709193
:1002B0006401841B950BA60BB70B40915D01509117
:1002C0005E0160915F017091600184179507A60738
:1002D000B707B0F28FEF9FEF0895FC01918D228D4B
:1002E000892F90E0805C9F4F821B91098F73992723
:1002F000089589E591E00E946D0121E0892B09F4C0
:1003000020E0822F089580E090E0892B29F00E9460
:10031000790181110C9400000895FC01A48DA80FAF
:10032000B92FB11DA35ABF4F2C91848D90E0019637
:100330008F739927848FA689B7892C93A089B18957
:100340008C91837080648C93938D848D981306C0F8
:100350000288F389E02D80818F7D80830895EF925C
:10036000FF920F931F93CF93DF93EC0181E0888F6F
:100370009B8D8C8D98131AC0E889F989808185FF3F
:1003800015C09FB7F894EE89FF896083E889F989E1
:1003900080818370806480839FBF81E090E0DF91E3
:1003A000CF911F910F91FF90EF900895F62E0B8D36
:1003B00010E00F5F1F4F0F731127E02E8C8D8E11F1
:1003C0000CC00FB607FCFACFE889F989808185FF58
:1003D000F5CFCE010E948D01F1CFEB8DEC0FFD2FFB
:1003E000F11DE35AFF4FF0829FB7F8940B8FEA8913
:1003F000FB8980818062CFCFCF93DF93EC01888D22
:100400008823B9F0AA89BB89E889F9898C9185FD8F
:1004100003C0808186FD0DC00FB607FCF7CF8C911D
:1004200085FFF2CF808185FFEDCFCE010E948D0147
:10043000E9CFDF91CF910895CF93DF93FC01019035
:100440000020E9F73197AF01481B590BBC0189E542
:1004500091E00E94CF00EC0142E050E062E171E0E7
:1004600089E591E00E94CF008C0F9D1FDF91CF9115
:1004700008951F920F920FB60F9211242F933F935E
:100480008F939F93AF93BF938091550190915601A5
:10049000A0915701B09158013091540123E0230FEE
:1004A0002D3758F50196A11DB11D2093540180935D
:1004B000550190935601A0935701B0935801809134
:1004C000500190915101A0915201B09153010196B8
:1004D000A11DB11D8093500190935101A093520131
:1004E000B0935301BF91AF919F918F913F912F9105
:1004F0000F900FBE0F901F90189526E8230F0296BD
:10050000A11DB11DD2CF1F920F920FB60F921124D1
:100510002F933F934F935F936F937F938F939F930B
:10052000AF93BF93EF93FF9389E591E00E948D0114
:10053000FF91EF91BF91AF919F918F917F916F91BB
:100540005F914F913F912F910F900FBE0F901F9091
:1005500018951F920F920FB60F9211242F938F931D
:100560009F93EF93FF93E0916901F0916A0180817D
:10057000E0916F01F091700182FD1BC0908180912C
:1005800072018F5F8F7320917301821741F0E091A8
:100590007201F0E0E75AFE4F958F80937201FF9150
:1005A000EF919F918F912F910F900FBE0F901F9001
:1005B00018958081F4CF789484B5826084BD84B529
:1005C000816084BD85B5826085BD85B5816085BD4E
:1005D00080916E00816080936E0010928100809106
:1005E000810082608093810080918100816080938E
:1005F0008100809180008160809380008091B100B3
:1006000084608093B1008091B00081608093B000DD
:1006100080917A00846080937A0080917A00826071
:1006200080937A0080917A00816080937A00809133
:100630007A00806880937A001092C100EDE9F0E0C2
:100640002491E9E8F0E08491882399F090E0880F04
:10065000991FFC01E859FF4FA591B491FC01EE5898
:10066000FF4F859194918FB7F894EC91E22BEC9326
:100670008FBF80E00E948700E0916901F0916A01DC
:1006800082E08083E0916501F09166011082E09143
:100690006701F09168018FEC808310927101E09105
:1006A0006D01F0916E0186E08083E0916B01F09125
:1006B0006C01808180618083E0916B01F0916C011D
:1006C000808188608083E0916B01F0916C01808172
:1006D00080688083E0916B01F0916C0180818F7D57
:1006E000808385E191E00E941C02C0E0D0E089E5B2
:1006F00091E00E946D01892B09F453C00E942D01E5
:10070000FC0197FD4AC08D32910519F0C0970A97F8
:10071000E8F5C12CD12C760110E0E130F105D1F0E3
:10072000ED32F105C1F1CF01C0970A9798F4AAE024
:10073000B0E0A70196010E941D046F01FF0FEE08B3
:10074000FF08C60ED71EE81EF91E20E3C21AD10804
:10075000E108F10889E591E00E940B010E942D015A
:10076000FC01C0970A97C8F2E130F105B1F21123FC
:1007700041F0F094E094D094C094C11CD11CE11CD1
:10078000F11CD0924F01C0924E01B1CF89E591E0AA
:100790000E940B01B3CF11E0DDCFC12CD12C76012B
:1007A000F0CF80914E0190914F018D36924094F0A0
:1007B00081E00E9487008BE291E00E941C0220975A
:1007C00009F495CF0E947901882309F490CF0E9403
:1007D00000008DCF80E00E9487008EE391E0EDCF96
:1007E000E9E5F1E01382128288EE93E0A0E0B0E048
:1007F00084839583A683B78384E091E0918380838B
:1008000085EC90E09587848784EC90E097878687D5
:1008100080EC90E0918B808B81EC90E0938B828BCD
:1008200082EC90E0958B848B86EC90E0978B868BA6
:10083000118E128E138E148E08950E942804A59F87
:10084000900DB49F900DA49F800D911D11240895CB
:10085000A29FB001B39FC001A39F700D811D112401
:10086000911DB29F700D811D1124911D0895EE0FF1
:0E087000FF1F0590F491E02D0994F894FFCF3E
:10087E0000000000AF01CF00FC00FC016D010B0178
:10088E001F010D0A00436F6E657869C3B36E204574
:10089E00737461626C656369646100536520656E93
:1008AE006369656E646520656C206C6564005365D4
:0E08BE0020617061676120656C206C656400CC
:00000001FF
